{
  "address": "0x367Aa330716F8643C06f3252919C15b71992d50B",
  "abi": [
    {
      "inputs": [
        {
          "internalType": "address",
          "name": "priceFeedAddress",
          "type": "address"
        }
      ],
      "stateMutability": "nonpayable",
      "type": "constructor"
    },
    {
      "inputs": [],
      "name": "NotOwner",
      "type": "error"
    },
    {
      "stateMutability": "payable",
      "type": "fallback"
    },
    {
      "inputs": [
        {
          "internalType": "address",
          "name": "",
          "type": "address"
        }
      ],
      "name": "addressToAmountFunded",
      "outputs": [
        {
          "internalType": "uint256",
          "name": "",
          "type": "uint256"
        }
      ],
      "stateMutability": "view",
      "type": "function"
    },
    {
      "inputs": [],
      "name": "fund",
      "outputs": [],
      "stateMutability": "payable",
      "type": "function"
    },
    {
      "inputs": [
        {
          "internalType": "uint256",
          "name": "",
          "type": "uint256"
        }
      ],
      "name": "funders",
      "outputs": [
        {
          "internalType": "address",
          "name": "",
          "type": "address"
        }
      ],
      "stateMutability": "view",
      "type": "function"
    },
    {
      "inputs": [],
      "name": "getFunders",
      "outputs": [
        {
          "internalType": "address[]",
          "name": "",
          "type": "address[]"
        }
      ],
      "stateMutability": "view",
      "type": "function"
    },
    {
      "inputs": [],
      "name": "i_owner",
      "outputs": [
        {
          "internalType": "address",
          "name": "",
          "type": "address"
        }
      ],
      "stateMutability": "view",
      "type": "function"
    },
    {
      "inputs": [],
      "name": "minimumUsd",
      "outputs": [
        {
          "internalType": "uint256",
          "name": "",
          "type": "uint256"
        }
      ],
      "stateMutability": "view",
      "type": "function"
    },
    {
      "inputs": [],
      "name": "priceFeed",
      "outputs": [
        {
          "internalType": "contract AggregatorV3Interface",
          "name": "",
          "type": "address"
        }
      ],
      "stateMutability": "view",
      "type": "function"
    },
    {
      "inputs": [],
      "name": "withdraw",
      "outputs": [],
      "stateMutability": "nonpayable",
      "type": "function"
    },
    {
      "stateMutability": "payable",
      "type": "receive"
    }
  ],
  "transactionHash": "0xb1f30b32e6bcde4f1028b58673e9353018856264d58824a06709a28b47f541ae",
  "args": [
    "0x8A753747A1Fa494EC906cE90E9f37563A8AF630e"
  ],
  "numDeployments": 1,
  "solcInputHash": "d81368db820337dcc8be77b27e60667e",
  "bytecode": "0x60a06040523480156200001157600080fd5b506040516200113338038062001133833981810160405281019062000037919062000120565b3373ffffffffffffffffffffffffffffffffffffffff1660808173ffffffffffffffffffffffffffffffffffffffff1660601b8152505080600260006101000a81548173ffffffffffffffffffffffffffffffffffffffff021916908373ffffffffffffffffffffffffffffffffffffffff1602179055505062000152565b600080fd5b600073ffffffffffffffffffffffffffffffffffffffff82169050919050565b6000620000e882620000bb565b9050919050565b620000fa81620000db565b81146200010657600080fd5b50565b6000815190506200011a81620000ef565b92915050565b600060208284031215620001395762000138620000b6565b5b6000620001498482850162000109565b91505092915050565b60805160601c610fbb620001786000396000818161031601526105940152610fbb6000f3fe60806040526004361061007f5760003560e01c8063b60d42881161004e578063b60d428814610142578063dba6335f1461014c578063dc0d3dff14610177578063ea63a044146101b45761008e565b8063098de820146100985780633ccfd60b146100c35780633e47d6f3146100da578063741bef1a146101175761008e565b3661008e5761008c6101df565b005b6100966101df565b005b3480156100a457600080fd5b506100ad610307565b6040516100ba919061081f565b60405180910390f35b3480156100cf57600080fd5b506100d8610314565b005b3480156100e657600080fd5b5061010160048036038101906100fc919061089d565b610554565b60405161010e919061081f565b60405180910390f35b34801561012357600080fd5b5061012c61056c565b6040516101399190610929565b60405180910390f35b61014a6101df565b005b34801561015857600080fd5b50610161610592565b60405161016e9190610953565b60405180910390f35b34801561018357600080fd5b5061019e6004803603810190610199919061099a565b6105b6565b6040516101ab9190610953565b60405180910390f35b3480156101c057600080fd5b506101c96105f5565b6040516101d69190610a85565b60405180910390f35b6802b5e3af16b188000061021e600260009054906101000a900473ffffffffffffffffffffffffffffffffffffffff163461068390919063ffffffff16565b1161025e576040517f08c379a000000000000000000000000000000000000000000000000000000000815260040161025590610b04565b60405180910390fd5b6000339080600181540180825580915050600190039060005260206000200160009091909190916101000a81548173ffffffffffffffffffffffffffffffffffffffff021916908373ffffffffffffffffffffffffffffffffffffffff16021790555034600160003373ffffffffffffffffffffffffffffffffffffffff1673ffffffffffffffffffffffffffffffffffffffff16815260200190815260200160002081905550565b6802b5e3af16b188000081565b7f000000000000000000000000000000000000000000000000000000000000000073ffffffffffffffffffffffffffffffffffffffff163373ffffffffffffffffffffffffffffffffffffffff1614610399576040517f30cd747100000000000000000000000000000000000000000000000000000000815260040160405180910390fd5b60005b6000805490508110156104445760008082815481106103be576103bd610b24565b5b9060005260206000200160009054906101000a900473ffffffffffffffffffffffffffffffffffffffff1690506000600160008373ffffffffffffffffffffffffffffffffffffffff1673ffffffffffffffffffffffffffffffffffffffff1681526020019081526020016000208190555050808061043c90610b82565b91505061039c565b50600067ffffffffffffffff8111156104605761045f610bcb565b5b60405190808252806020026020018201604052801561048e5781602001602082028036833780820191505090505b50600090805190602001906104a492919061075f565b5060003373ffffffffffffffffffffffffffffffffffffffff16476040516104cb90610c2b565b60006040518083038185875af1925050503d8060008114610508576040519150601f19603f3d011682016040523d82523d6000602084013e61050d565b606091505b5050905080610551576040517f08c379a000000000000000000000000000000000000000000000000000000000815260040161054890610c8c565b60405180910390fd5b50565b60016020528060005260406000206000915090505481565b600260009054906101000a900473ffffffffffffffffffffffffffffffffffffffff1681565b7f000000000000000000000000000000000000000000000000000000000000000081565b600081815481106105c657600080fd5b906000526020600020016000915054906101000a900473ffffffffffffffffffffffffffffffffffffffff1681565b6060600080548060200260200160405190810160405280929190818152602001828054801561067957602002820191906000526020600020905b8160009054906101000a900473ffffffffffffffffffffffffffffffffffffffff1673ffffffffffffffffffffffffffffffffffffffff168152602001906001019080831161062f575b5050505050905090565b60008061068f836106bf565b90506000670de0b6b3a764000085836106a89190610cac565b6106b29190610d35565b9050809250505092915050565b6000808273ffffffffffffffffffffffffffffffffffffffff1663feaf968c6040518163ffffffff1660e01b815260040160a06040518083038186803b15801561070857600080fd5b505afa15801561071c573d6000803e3d6000fd5b505050506040513d601f19601f820116820180604052508101906107409190610df3565b5050509150506402540be400816107579190610e6e565b915050919050565b8280548282559060005260206000209081019282156107d8579160200282015b828111156107d75782518260006101000a81548173ffffffffffffffffffffffffffffffffffffffff021916908373ffffffffffffffffffffffffffffffffffffffff1602179055509160200191906001019061077f565b5b5090506107e591906107e9565b5090565b5b808211156108025760008160009055506001016107ea565b5090565b6000819050919050565b61081981610806565b82525050565b60006020820190506108346000830184610810565b92915050565b600080fd5b600073ffffffffffffffffffffffffffffffffffffffff82169050919050565b600061086a8261083f565b9050919050565b61087a8161085f565b811461088557600080fd5b50565b60008135905061089781610871565b92915050565b6000602082840312156108b3576108b261083a565b5b60006108c184828501610888565b91505092915050565b6000819050919050565b60006108ef6108ea6108e58461083f565b6108ca565b61083f565b9050919050565b6000610901826108d4565b9050919050565b6000610913826108f6565b9050919050565b61092381610908565b82525050565b600060208201905061093e600083018461091a565b92915050565b61094d8161085f565b82525050565b60006020820190506109686000830184610944565b92915050565b61097781610806565b811461098257600080fd5b50565b6000813590506109948161096e565b92915050565b6000602082840312156109b0576109af61083a565b5b60006109be84828501610985565b91505092915050565b600081519050919050565b600082825260208201905092915050565b6000819050602082019050919050565b6109fc8161085f565b82525050565b6000610a0e83836109f3565b60208301905092915050565b6000602082019050919050565b6000610a32826109c7565b610a3c81856109d2565b9350610a47836109e3565b8060005b83811015610a78578151610a5f8882610a02565b9750610a6a83610a1a565b925050600181019050610a4b565b5085935050505092915050565b60006020820190508181036000830152610a9f8184610a27565b905092915050565b600082825260208201905092915050565b7f4469646e742073656e6420656e6f756768206574686572000000000000000000600082015250565b6000610aee601783610aa7565b9150610af982610ab8565b602082019050919050565b60006020820190508181036000830152610b1d81610ae1565b9050919050565b7f4e487b7100000000000000000000000000000000000000000000000000000000600052603260045260246000fd5b7f4e487b7100000000000000000000000000000000000000000000000000000000600052601160045260246000fd5b6000610b8d82610806565b91507fffffffffffffffffffffffffffffffffffffffffffffffffffffffffffffffff821415610bc057610bbf610b53565b5b600182019050919050565b7f4e487b7100000000000000000000000000000000000000000000000000000000600052604160045260246000fd5b600081905092915050565b50565b6000610c15600083610bfa565b9150610c2082610c05565b600082019050919050565b6000610c3682610c08565b9150819050919050565b7f5472616e73616374204661696c00000000000000000000000000000000000000600082015250565b6000610c76600d83610aa7565b9150610c8182610c40565b602082019050919050565b60006020820190508181036000830152610ca581610c69565b9050919050565b6000610cb782610806565b9150610cc283610806565b9250817fffffffffffffffffffffffffffffffffffffffffffffffffffffffffffffffff0483118215151615610cfb57610cfa610b53565b5b828202905092915050565b7f4e487b7100000000000000000000000000000000000000000000000000000000600052601260045260246000fd5b6000610d4082610806565b9150610d4b83610806565b925082610d5b57610d5a610d06565b5b828204905092915050565b600069ffffffffffffffffffff82169050919050565b610d8581610d66565b8114610d9057600080fd5b50565b600081519050610da281610d7c565b92915050565b6000819050919050565b610dbb81610da8565b8114610dc657600080fd5b50565b600081519050610dd881610db2565b92915050565b600081519050610ded8161096e565b92915050565b600080600080600060a08688031215610e0f57610e0e61083a565b5b6000610e1d88828901610d93565b9550506020610e2e88828901610dc9565b9450506040610e3f88828901610dde565b9350506060610e5088828901610dde565b9250506080610e6188828901610d93565b9150509295509295909350565b6000610e7982610da8565b9150610e8483610da8565b9250827f7fffffffffffffffffffffffffffffffffffffffffffffffffffffffffffffff0482116000841360008413161615610ec357610ec2610b53565b5b817f80000000000000000000000000000000000000000000000000000000000000000583126000841260008413161615610f0057610eff610b53565b5b827f80000000000000000000000000000000000000000000000000000000000000000582126000841360008412161615610f3d57610f3c610b53565b5b827f7fffffffffffffffffffffffffffffffffffffffffffffffffffffffffffffff0582126000841260008412161615610f7a57610f79610b53565b5b82820290509291505056fea2646970667358221220384e9640c18dc13ec9a7e0725358fb6bec3b24f08b7a353c3729c98544979ce964736f6c63430008080033",
  "devdoc": {
    "kind": "dev",
    "methods": {},
    "version": 1
  },
  "userdoc": {
    "kind": "user",
    "methods": {},
    "version": 1
  },
  "storageLayout": {
    "storage": [
      {
        "astId": 63,
        "contract": "contracts/FundMe.sol:FundMe",
        "label": "funders",
        "offset": 0,
        "slot": "0",
        "type": "t_array(t_address)dyn_storage"
      },
      {
        "astId": 67,
        "contract": "contracts/FundMe.sol:FundMe",
        "label": "addressToAmountFunded",
        "offset": 0,
        "slot": "1",
        "type": "t_mapping(t_address,t_uint256)"
      },
      {
        "astId": 72,
        "contract": "contracts/FundMe.sol:FundMe",
        "label": "priceFeed",
        "offset": 0,
        "slot": "2",
        "type": "t_contract(AggregatorV3Interface)45"
      }
    ],
    "types": {
      "t_address": {
        "encoding": "inplace",
        "label": "address",
        "numberOfBytes": "20"
      },
      "t_array(t_address)dyn_storage": {
        "base": "t_address",
        "encoding": "dynamic_array",
        "label": "address[]",
        "numberOfBytes": "32"
      },
      "t_contract(AggregatorV3Interface)45": {
        "encoding": "inplace",
        "label": "contract AggregatorV3Interface",
        "numberOfBytes": "20"
      },
      "t_mapping(t_address,t_uint256)": {
        "encoding": "mapping",
        "key": "t_address",
        "label": "mapping(address => uint256)",
        "numberOfBytes": "32",
        "value": "t_uint256"
      },
      "t_uint256": {
        "encoding": "inplace",
        "label": "uint256",
        "numberOfBytes": "32"
      }
    }
  }
}